:100000000C9446000C9465000C9465000C946500FB
:100010000C9465000C9465000C9465000C946500CC
:100020000C9465000C9465000C9465000C946500BC
:100030000C9465000C9419010C9465000C946500F7
:100040000C9465000C9465000C9465000C9465009C
:100050000C9465000C9465000C9465000C9465008C
:100060000C9465000C9465000C9465000C9465007C
:100070000C9465000C9465000C9465000C9465006C
:100080000C9465000C9465000C94650011241FBE4F
:10009000CFEFD0E4DEBFCDBF11E0A0E0B1E0E8E9F2
:1000A000F5E000E00BBF02C007900D92AC31B10744
:1000B000D9F721E0ACE1B1E001C01D92A832B2074E
:1000C000E1F70E948D020C94CA020C94000040E0FB
:1000D00050E00CC000002F5F3F4F02C020E030E036
:1000E000273063E03607B4F34F5F5F4F4817590777
:1000F000ACF308959BB19F7B9BB988B98BB18068A5
:100100008BB900008BB18F778BB982E090E00E94B1
:100110006700089581E00E947A000895813120F4FB
:1001200081580E947A00089581550E947A000895AE
:1001300084E690E00E94670088E30E947A0086E0EF
:100140000E947A008FE00E947A0081E00E947A008B
:100150008AE090E00E94670008959BB190649BB98B
:1001600088B98BB180688BB900008BB18F778BB960
:1001700081E090E00E9467000895EF92FF920F9354
:100180001F93CF93DF93182FEB010E948A000EC0BC
:1001900001E0010F812F0E948E007E018FEFE81A8F
:1001A000F80A88810E94AD00102FE7018881811133
:1001B000EFCFDF91CF911F910F91FF90EF900895B6
:1001C000CF93C82F8A3019F48DE00E94E00080910F
:1001D000C00085FFFCCFC093C60080E090E0CF91C7
:1001E00008958BE0809381008DE790E090938900E3
:1001F0008093880082E080936F00109285001092B7
:10020000840080910E0190910F01A0911001B09196
:10021000110180931C0190931D01A0931E01B093C6
:100220001F018FB780688FBF089581E08093200100
:1002300008951F920F920FB60F9211240BB60F92D2
:100240002F933F934F935F936F937F938F939F93DE
:10025000AF93BF93EF93FF9380911C0190911D0189
:10026000A0911E01B0911F010197A109B1098093CE
:100270001C0190931D01A0931E01B0931F01892BB7
:100280008A2B8B2B91F40E94150180910E01909185
:100290000F01A0911001B091110180931C01909366
:1002A0001D01A0931E01B0931F01FF91EF91BF911B
:1002B000AF919F918F917F916F915F914F913F91FE
:1002C0002F910F900BBE0F900FBE0F901F9018959F
:1002D00060930E0170930F018093100190931101B0
:1002E00060931C0170931D0180931E0190931F0168
:1002F000089580912401909125018230910509F49F
:1003000042C028F4009769F00197C1F0CCC0843056
:10031000910509F497C008F470C0059709F4A6C0C8
:10032000C2C081E08093270185E08093220181E0B3
:1003300090E09093250180932401B9C08091210120
:10034000882321F090912301913049F482E090E0DC
:10035000909325018093240110922601A8C0882340
:1003600009F4A5C09111A3C084E090E09093250109
:100370008093240180912201882309F498C0815040
:100380008093220194C080912101882321F09091D3
:100390002301913059F490912601911107C083E017
:1003A00090E0909325018093240181C0882321F05F
:1003B00090912301913059F490912601913039F4B4
:1003C00081E090E0909325018093240170C0882300
:1003D00009F46DC080912301811169C084E090E02F
:1003E000909325018093240180912201893008F0A7
:1003F0005EC08F5F809322015AC0809121018823C3
:1004000021F090912301913051F482E090E090939B
:1004100025018093240181E08093260148C0882330
:1004200009F445C0911143C084E090E09093250108
:1004300080932401809122018823C9F18150809307
:10044000220135C080912101882339F084E090E0B9
:1004500090932501809324012AC0811128C085E052
:1004600090E0909325018093240121C08091210187
:10047000811107C085E090E09093250180932401CD
:1004800016C08823A1F081E090E09093250180932D
:1004900024018093230180912201893040F085E07E
:1004A0008093220104C010922501109224018091B2
:1004B0002401909125018230910599F083309105B6
:1004C000F1F0019749F581E08093270180912101A6
:1004D000811122C0809123018130F1F41092230117
:1004E000089582E08093270180912101811114C039
:1004F00080912301813081F410922301089584E0DA
:100500008093270180912101811106C080912301F0
:10051000813011F410922301089511B88FEF82B940
:1005200084B915B887B918B88AB91BB810922501D3
:10053000109224016CE271E080E090E00E9468017A
:100540000E94F1000E94980090B181E0892781709B
:10055000809321010E94790180912201893058F411
:100560000E948A0081E00E948E0080912201805DBD
:100570000E94AD0005C062E171E081E00E94BD0013
:100580008091270185B9809120018823E1F31092A1
:080590002001DACFF894FFCF3F
:100598000000000200000000E00000000000010070
:0C05A800000057494E4E45522121000032
:00000001FF
